:020000040800F2
:10000000C0060020B50100080115000845140008CD
:10001000FD140008710200082D1600080000000001
:1000200000000000000000000000000009150008AA
:100030007502000800000000051500080D150008F5
:10004000CF010008CF010008CF010008CF01000850
:10005000CF010008CF010008CF010008CF01000840
:10006000CF010008CF010008CF010008CF01000830
:10007000CF010008CF010008CF010008CF01000820
:10008000CF010008CF010008CF010008CF01000810
:10009000CF010008CF010008CF010008CF01000800
:1000A000CF010008CF010008CF010008CF010008F0
:1000B000CF010008CF010008CF010008CF010008E0
:1000C000CF010008CF010008CF010008CF010008D0
:1000D000CF01000821160008CF010008CF01000859
:1000E000CF010008CF010008CF01000800F002F89E
:1000F00000F050F814A696E8000CB244B344DA4578
:1001000001D100F047F8BAE80F000FA696E83000DA
:10011000A5EB040504EB0607AAEB0704A7F101070A
:100120004FEA15154FEA3414A4F10104AC4201D38F
:1001300000F030F813F0010F18BFFB1A43F0010371
:1001400000F001F8DBE718477C1500009C15000063
:10015000103A24BF78C878C1FAD8520724BF30C8F3
:1001600030C144BF04680C60704700007047000055
:100170000023002400250026103A28BF78C1FBD8B0
:10018000520728BF30C148BF0B6070471FB51FBD65
:1001900010B510BD00F031F81146FFF7F7FF01F080
:1001A00047FA00F04FF803B4FFF7F2FF03BC00F08A
:1001B00057F800000948804709480047FEE7FEE776
:1001C000FEE7FEE7FEE7FEE7FEE7FEE7FEE7FEE707
:1001D00004480549054A064B704700001115000800
:1001E000ED000008C0000020C0060020C002002072
:1001F000C0020020704770477047754600F02CF829
:10020000AE4605006946534620F00700854618B003
:1002100020B5FFF7DDFFBDE820404FF000064FF0AE
:1002200000074FF000084FF0000BAC46ACE8C009E7
:10023000ACE8C009ACE8C009ACE8C00921F007018E
:100240008D46704710B50446AFF300802046BDE8E8
:100250001040FFF7A8BF00000048704710000020C2
:1002600001491820ABBEFEE72600020070470000DF
:10027000FEE7000070470000EFF3108072B600BF89
:10028000FEE70000014690F82100022816D1086818
:10029000D1E90FC3026822F00E020260026822F068
:1002A00001020260012000FA03F2CCF8042081F878
:1002B00021000020002281F820207047042088635C
:1002C0000120002281F820207047000090F82110C2
:1002D000022923D1026840F2040C1168C4F2020C16
:1002E00021F00E01116013682F21C4F202018A422D
:1002F00023F00103136015DD3023C4F202039A4298
:100300001CD04423C4F202039A421BD05823C4F2E7
:1003100002039A421CD14FF4803321E0042181630F
:10032000012070470823C4F202039A420ED01C2316
:10033000C4F202039A420BD1102311E04FF48073F0
:100340000EE000BF4FF480530AE000BF012307E036
:100350000CF168014FF080738A4208BF4FF480139C
:100360000121CCF8003080F82110416B00220029D7
:1003700080F8202004BF0020704780B58847002007
:1003800080BD00002DE9F04F82B00E68002E00F015
:10039000FD8041F20042C4F20102042340F2004E0B
:1003A000904208BF03234FF6FF7CC4F2010E009376
:1003B00000240123C1F2100C4FF0000A4FF0000995
:1003C0004BE000BF41F20002C4F20102009F9042E4
:1003D00008BF022704F00C030F229A402BEA020206
:1003E00007FA03F34FEA9A051A4346F825204E68A8
:1003F00040F20C45F202DEF8082054BF22EA08025F
:1004000042EA0802C4F20105CEF808202A68B302C5
:1004100054BF22EA080242EA08022A60B303DEF867
:10042000042054BF22EA080242EA0802F303CEF88D
:100430000420DEF800204FF0010354BF22EA080236
:1004400042EA0802CEF800200E680AF1010A36FAE4
:100450000AF204F1040400F0998003FA0AFB16EA98
:100460000B08F1D04E68664512DC122E56D8DFE834
:1004700006F0350B4D49555555555555555555555E
:1004800055555545510000BFD1F80C9046E000BFCE
:100490004FF6FF72C1F2210296420FDC0022C1F238
:1004A000110296421AD00022C1F21202964215D0D1
:1004B0000022C1F22102964210D02FE00022C1F2A8
:1004C000220296420AD00022C1F23102964205D0A1
:1004D0000022C1F23202964220D100BF8A684AB19E
:1004E000012A14BFC0F814B0C0F810B04FF00809CA
:1004F00014E000BF4FF0040910E000BFCA6802F129
:1005000004090BE04FF0000908E000BFCA6802F1DF
:10051000080903E0CA6802F10C0900BF024626463A
:10052000B8F5807F24BF0432203E17680F25B54000
:1005300027EA050509FA06F635431560CA79D20699
:100540007FF582AF41F21803C4F202031A68AEF5D8
:100550007E7642F001021A601A6802F001020192EE
:10056000019A2AF0030256F802B040F60002C4F2E3
:100570000102904208D040F60042C4F201029042CB
:100580007FF420AF012725E7002723E702B0BDE86D
:10059000F08F0000002A08BF0904016170470000C5
:1005A00040F2B800C2F200000068704740F200005C
:1005B00040F2B801C2F20000C2F2000100780A68FD
:1005C000104408607047000080B542F20000C4F299
:1005D0000200016841F010010160032000F08CF876
:1005E0000F2000F005F800F027F8002080BD000083
:1005F00070B540F20006C2F2000640F208013278FF
:10060000C2F200014FF47A730968B3FBF2F20446B8
:10061000B1FBF2F1084600F085FB0F2C4FF001050D
:1006200008D838B94FF0FF3021460022002500F0ED
:1006300037F87460284670BD82B041F21800C4F2E9
:1006400002000168022241F001010160016801F02D
:10065000010101910199416841F080514160406878
:1006600000F08050009000980420C4F2010001685E
:1006700062F31A61016002B070470000002848BFB1
:10068000704700F01F01012202FA01F11C2202EA68
:10069000D0004EF20012CEF20002815070470000EE
:1006A00010B54EF60C5CCEF2000CDCF80030C3F353
:1006B000022E8EF00704042C28BF0424BEF103038D
:1006C0004FF0FF3E0EFA04F438BF0023A1439940D7
:1006D0000EFA03F39A43114300F00F0200F1604356
:1006E0000901043A03F564436244002848BF02F15B
:1006F0000C03197010BD00004EF60C51CEF2000133
:100700000A684FF6FF031A4060F30A2242F0806045
:1007100040F0FD7008607047002804BF012070475A
:100720002DE9F04381B042F20008C4F20208044609
:10073000D8F800000D4600F0070081420CD9D8F827
:10074000000020F007002843C8F80000D8F8000097
:1007500000F00700A8426CD1206841F2040981072B
:10076000C4F2020917D5410705D5D9F8001041F4A4
:10077000E061C9F80010010705D5D9F8001041F46F
:100780006051C9F80010D9F80010A26821F0F001FA
:100790001143C9F80010C00742D1D8F8000000F09A
:1007A000070085420CD2D8F8000020F0070028434B
:1007B000C8F80000D8F8000000F00700A84238D1BF
:1007C0002068410707D5D9F80010E26821F4E061FC
:1007D0001143C9F80010000708D5D9F800002169B5
:1007E00020F4605040EAC100C9F80000D9F80020A8
:1007F00002F00C00082841F20020C0F27A004DD12E
:1008000041F2B463C2F38341C0F60003595CD203E2
:1008100038D440F60010C0F23D0048433EE000BF2F
:10082000606859F8041C022808D0012826D18903E1
:1008300006D4012001B0BDE8F08300BF8901F8D5DE
:10084000D9F8001021F003010843C9F80000FFF7B0
:10085000A7FE064641F28837D9F80000616800F02B
:100860000C00B0EB810F98D0FFF79AFE801BB842C6
:10087000F2D9032001B0BDE8F08300BF8907D8D5C5
:10088000DEE700BFD9F8002041F2B263C2F3404274
:10089000C0F600039A5C4843B0FBF2F0D9F80010B0
:1008A00041F29A62C1F30311C0F60002515C40F2BA
:1008B000080220FA01F140F20400C2F200000068D0
:1008C000C2F200021160FFF793FE002001B0BDE804
:1008D000F083000040F2080041F20401C2F200007F
:1008E000C4F202010068096841F2AA62C1F3022160
:1008F000C0F60002515CC8407047000040F208009A
:1009000041F20401C2F20000C4F202010068096869
:1009100041F2AA62C1F3C221C0F60002515CC84094
:1009200070470000002804BF012070472DE9F04106
:1009300082B00446007841F20006C007C4F2020605
:100940000CD0706800F00C00042840F08180306802
:10095000800303D56068002800F046812078800776
:100960001BD5706810F00C0F09D0706800F00C00F7
:10097000082840F087807068C00300F183803068E9
:10098000800703D52069012840F02E813068616915
:1009900020F0F80040EAC10030602078000713D44E
:1009A000207840072CD4E569002D00F0188170688C
:1009B00000F00C00082840F0A780012D40F00481D1
:1009C000012002B0BDE8F081A069002800F0848019
:1009D0000020C4F242200121C0F88014FFF7E0FD9E
:1009E000054600BF706A800700F1B280FFF7D8FDAE
:1009F000401B0228F6D9032002B0BDE8F08100BFF9
:100A0000F0695FEAC00808D4F06940F08050F061F6
:100A1000F06900F080500090009847F20007C4F29F
:100A200000073868C00549D4386840F480703860E1
:100A3000FFF7B6FD054600BF3868C0053ED4FFF796
:100A4000AFFD401B6428F7D9032002B0BDE8F08158
:100A5000706800F00C00082803D17068C0033FF5EF
:100A600076AF61683068002900F00C81B1F5A02FE5
:100A700000F00081B1F5803F40F01A8140F48030F1
:100A80001CE100BF2069002840F20000C4F24220AF
:100A900000F0888001210160FFF782FD054600BF5C
:100AA000306880073FF572AFFFF77AFD401B0228E0
:100AB000F6D9032002B0BDE8F08100BFE168306ADA
:100AC000002900F09D80052900F09280012940F066
:100AD000AF8040F00100B1E00020C4F242200021CC
:100AE000C0F88014FFF75CFD054600BF706A800700
:100AF0007FF556AFFFF754FD401B0228F6D90320BF
:100B000002B0BDE8F08100BF0027C4F242270020F8
:100B10003866FFF745FD022D05460DD1306880018E
:100B200040F1DE80FFF73CFD401B02284FF0030040
:100B3000F4D902B0BDE8F081306880014FD5FFF7ED
:100B40002FFD401B02284FF00300F5D9F1E700BF4D
:100B500040F20800C2F20000006844F6D351C1F22E
:100B60006201A0FB0101480A019000BF00BF01988B
:100B7000411E002801913FF413AF00BF0198411EB0
:100B8000002801913FF40CAF00BF0198411E0028DE
:100B900001913FF405AF00BF0198411E002801916B
:100BA000E4D1FDE600210160FFF7FAFC054600BF35
:100BB000306880077FF5F1AEFFF7F2FC401B02289A
:100BC0004FF00300F4D9B4E77068216A00F4803272
:100BD0008A4209D1616A00F47010884204D1002071
:100BE00002B0BDE8F08100BF012002B0BDE8F08195
:100BF00040F004003062306A40F001001EE000BFA7
:100C000020F001003062306A20F004003062FFF70B
:100C1000C7FC054641F28837306A800720D5FFF7C8
:100C2000BFFC401BB8424FF00300F5D981E700BF7D
:100C300020F001003062306A20F004003062FFF7DB
:100C4000AFFC054641F28837306A800708D4FFF7C9
:100C5000A7FC401BB842F7D9032002B0BDE8F081E1
:100C6000B8F1000F3FF59FAEF06920F08050F061C1
:100C700099E600BF40F480203060306840F4803056
:100C80001CE000BF20F480303060306820F4802009
:100C90003060FFF785FC0546306880037FF55EAE67
:100CA000FFF77EFC401B64284FF00300F4D940E7B7
:100CB00020F480303060306820F480203060FFF70E
:100CC0006FFC0546306880033FF548AEFFF768FCCF
:100CD000401B6428F6D9032002B0BDE8F08100BFB4
:100CE000206AB0F5803F05D17168A26821F4003117
:100CF000114371607168626A21F4741111430843F1
:100D0000706001203866FFF74BFC044630688001B4
:100D10003FF565AFFFF744FC001B02284FF00300CE
:100D2000F4D906E7411E0020B0EB116F1CBF012073
:100D300070474EF21002CEF2000251604EF623517F
:100D4000CEF20001F0230B70072190601160704714
:100D50007047000070470000B0B582B001680A68B3
:100D6000CC684B6902F02F05202D04F0200505D139
:100D700025B102B0BDE8B04000F0D2BB5FEA027C12
:100D80001EBF03F0010E04F4907313EB0E0341D168
:100D9000036BD50618D5012B16D114F0100313D010
:100DA000002201920A6801924A680192019A4969F7
:100DB00049064BD4818DC28DC38D002B18BF914243
:100DC00040F0F48102B0B0BD13062DD514F08003BD
:100DD0002AD090F84120212AF4D18268B2F5805FB0
:100DE00003D10269002A00F06782026A531C036281
:100DF00012784A60C28C013A1304C284E2D1C868F6
:100E000020F08000C860C86840F04000C86002B0B0
:100E1000B0BD00BFD30718BF14F4807340F0D0807A
:100E2000530700F1D380D8E05206CBD514F040022E
:100E3000C8D0CA6822F04002CA60202180F8411060
:100E400002B0BDE8B04000F0FBBA00BFC16B0A6859
:100E5000526893B2002BB5D0858DAB42B2D2C28519
:100E60008969202900F0A180016851E8031F026808
:100E700021F4807142E80313DBB1016851E8031FDC
:100E8000026821F4807142E8031393B1016851E8CC
:100E9000031F026821F4807142E803134BB101681B
:100EA00051E8031F026821F4807142E80313002B0C
:100EB000DAD1016851E8051F026821F0010142E81A
:100EC0000513C3B3016851E8051F026821F0010151
:100ED00042E805137BB3016851E8051F026821F061
:100EE000010142E8051333B3016851E8051F0268A8
:100EF00021F0010142E80513002BDAD11BE000BF0D
:100F0000016851E8051F026821F0400142E805131D
:100F1000DBB1016851E8051F026821F0400142E899
:100F2000051393B1016851E8051F026821F04001E3
:100F300042E805134BB1016851E8051F026821F032
:100F4000400142E80513002BDAD1202180F842103D
:100F500000210163016851E8031F026821F01001BC
:100F600042E80313DBB1016851E8031F026821F076
:100F7000100142E8031393B1016851E8031F0268AE
:100F800021F0100142E803134BB1016851E8031F3F
:100F9000026821F0100142E80313002BDAD1C16B83
:100FA00004460846FFF76EF9204602214163818D11
:100FB000C28D891A89B202B0BDE8B040FFF7C8BE41
:100FC000436C43F001034364530706D5BEF1000FA1
:100FD00003D0436C43F002034364930706D5BEF18C
:100FE000000F03D0436C43F004034364BCF1000FD3
:100FF00006D55EEA050303D0436C43F0080343645F
:10100000436C002B3FF4DEAE920605D525B10446B5
:1010100000F086FA216820464969426C01F04001DF
:1010200002F00802891800F0B98000BF016851E899
:10103000031F026821F4907142E80313BBB30168F7
:1010400051E8031F026821F4907142E8031373B35F
:10105000016851E8031F026821F4907142E803130C
:101060002BB3016851E8031F026821F4907142E834
:101070000313002BDAD11AE0016851E8051F02685A
:1010800021F0010142E80513DBB1016851E8051FB9
:10109000026821F0010142E8051393B1016851E8AB
:1010A000051F026821F0010142E805134BB10168F8
:1010B00051E8051F026821F0010142E80513002BE9
:1010C000DAD1016B012924D1016851E8031F0268BC
:1010D00021F0100142E80313DBB1016851E8031F5E
:1010E000026821F0100142E8031393B1016851E84E
:1010F000031F026821F0100142E803134BB101689D
:1011000051E8031F026821F0100142E80313002B8D
:10111000DAD1202180F84210002101630168496979
:10112000490640F1C380016851E8051F026821F0BB
:10113000400142E80513DBB1016851E8051F026870
:1011400021F0400142E8051393B1016851E8051F01
:10115000026821F0400142E805134BB1016851E8F3
:10116000051F026821F0400142E80513002BDAD187
:10117000C16B002900F09A8041F21552C0F60002BE
:10118000044608464A63FFF7A1F800283FF41AAE68
:10119000E06B416B02B0BDE8B04008470446FFF782
:1011A000D9FD0020606402B0B0BD00BF891A00BF45
:1011B000026852E8032F036822F4907243E8032583
:1011C000BDB3026852E8032F036822F4907243E82B
:1011D000032575B3026852E8032F036822F4907266
:1011E00043E803252DB3026852E8032F036822F475
:1011F000907243E80325002DDAD11AE0026852E824
:10120000052F036822F0010243E80525DDB10268DD
:1012100052E8052F036822F0010243E8052595B145
:10122000026852E8052F036822F0010243E8052511
:101230004DB1026852E8052F036822F0010243E82D
:101240000525002DDAD1202280F8422000220263F9
:10125000026852E8032F036822F0100243E80325D6
:10126000DDB1026852E8032F036822F0100243E860
:10127000032595B1026852E8032F036822F010029B
:1012800043E803254DB1026852E8032F036822F0BA
:10129000100243E80325002DDAD1022289B242630D
:1012A00002B0BDE8B040FFF753BD00BF02B0BDE8DB
:1012B000B040FFF74FBD00BF026A32F8023B6FF348
:1012C0005F234B60026295E5002804BF0120704750
:1012D00010B5044690F8410028B9002084F8400079
:1012E000204600F063F8242084F841002068D4E907
:1012F0000212C36823F40053C360036923F440530C
:101300001A430261D4E904231143C268194341F22C
:101310000C639A431143C1604169A26921F4407191
:10132000114343F60002C4F201029042416103D02E
:10133000FFF7D0FA02E000BFFFF7E0FAD4E900239C
:10134000192148439900B0FBF1F048F21F5CC5F247
:10135000EB1CA0FB0C314FF69C734909C0F6FF73E0
:1013600001FB0300322303EB0010A0FB0C03F02071
:1013700000EA531000EB0110C3F3431108449060DE
:101380001069202120F490401061506920F02A005B
:101390005061D06840F40050D0600020606484F850
:1013A000411084F84210606310BD000070B586B033
:1013B00040F60004C4F20104006804F54051002620
:1013C00088420596CDE90366029601D006B070BD4D
:1013D00041F21800C4F20200016802AD41F48041FC
:1013E0000160016801F4804101910199016841F0B7
:1013F000040101600068294600F004000190019892
:101400004FF40070029002200390032005902046C4
:10141000FEF7B8FF4FF48060CDE90206204629466A
:101420000496FEF7AFFF252000210022FFF738F9D0
:101430002520FFF723F906B070BD000070470000BB
:1014400070470000FEE70000F0B585B0002541F2CE
:101450001800CDE90355CDE90155C4F20200016839
:1014600040F6000441F0100101600168C4F201047B
:1014700001F01001009100990168012241F0200162
:10148000016001680E2601F02001009100990168B9
:10149000012741F00401016000680E2100F0040002
:1014A000009000982046FFF775F80220049001A9EB
:1014B0002046CDE901670395FEF764FF05B0F0BD56
:1014C00080B540F2700043F60001C2F20000C4F2A1
:1014D000010100234FF00C0C4FF4E13280E80E00C4
:1014E000C0E90333C0E905C3C361FFF7EDFE00287F
:1014F00008BF80BDBDE88040FEF7BEBEFEE700002D
:10150000FEE700007047000070470000FFF74EB88C
:1015100070470000406A0021C185C184FFF71ABCF2
:1015200081B090F84210222921D183680246B3F598
:10153000805F09D152F8281F52F8183C002B63D065
:1015400003685B680AE000BF52F8281F13B90369FB
:10155000002BF5D003685B6803F07F030B70116804
:1015600001311160C18D01390A04C18502D001B079
:10157000704700BF0168CA6822F02002CA60CA68CA
:1015800022F48072CA604A6922F001024A61202175
:1015900080F8421000214163026B012A3CD10163B3
:1015A000016851E8031F026821F0100142E80313AB
:1015B000DBB1016851E8031F026821F0100142E825
:1015C000031393B1016851E8031F026821F0100171
:1015D00042E803134BB1016851E8031F026821F090
:1015E000100142E80313002BDAD101680A68D20621
:1015F00006D5002200920A6800924968009100997D
:10160000818D01B0FFF7A4BB026852686FF35F22BF
:1016100021F8022B8162A5E701B0FFF70FBF0000A0
:1016200040F27000C2F20000FFF796BBFEE7000038
:1016300090B0FEF7C9FF00240120CDE90B44CDE9AD
:10164000094406900A904FF4E0104FF480310225CF
:101650000F9006A8CDE90714CDE90D51FFF762F907
:1016600020B1EFF3108072B6FEE700BF0F20CDE986
:1016700001054FF48060CDE9040401A80221039420
:10168000FFF74AF820B1EFF3108072B6FEE700BF13
:10169000FFF7DAFEFFF714FFFEE70000000000008E
:1016A000000001020304060708090000000001020F
:1016B0000304010202030405060708090A0B0C0DC6
:1016C0000E0F1010E81600080000002010000000A7
:1016D00050010008F816000810000020B0060000B5
:1016E0007001000800000000010000001000000070
:0816F00000127A000000000066
:04000005080000ED02
:00000001FF
