:020000040800F2
:10000000C0060020B5010008C90F0008410F000814
:10001000C50F000871020008DD0F00080000000095
:10002000000000000000000000000000D10F0008E8
:100030007502000800000000CD0F0008D50F000871
:10004000CF010008CF010008CF010008CF01000850
:10005000CF010008CF010008CF010008CF01000840
:10006000CF010008CF010008CF010008CF01000830
:10007000CF010008CF010008CF010008CF01000820
:10008000CF010008CF010008CF010008CF01000810
:10009000CF010008CF010008CF010008CF01000800
:1000A000CF010008CF010008CF010008CF010008F0
:1000B000CF010008CF010008CF010008CF010008E0
:1000C000CF010008CF010008CF010008CF010008D0
:1000D000CF010008CF010008CF010008CF010008C0
:1000E000CF010008CF010008CF01000800F002F89E
:1000F00000F050F814A696E8000CB244B344DA4578
:1001000001D100F047F8BAE80F000FA696E83000DA
:10011000A5EB040504EB0607AAEB0704A7F101070A
:100120004FEA15154FEA3414A4F10104AC4201D38F
:1001300000F030F813F0010F18BFFB1A43F0010371
:1001400000F001F8DBE71847540F0000740F0000BF
:10015000103A24BF78C878C1FAD8520724BF30C8F3
:1001600030C144BF04680C60704700007047000055
:100170000023002400250026103A28BF78C1FBD8B0
:10018000520728BF30C148BF0B6070471FB51FBD65
:1001900010B510BD00F031F81146FFF7F7FF00F081
:1001A0001FFF00F04FF803B4FFF7F2FF03BC00F0AD
:1001B00057F800000948804709480047FEE7FEE776
:1001C000FEE7FEE7FEE7FEE7FEE7FEE7FEE7FEE707
:1001D00004480549054A064B70470000D90F00083E
:1001E000ED000008C0000020C0060020C002002072
:1001F000C0020020704770477047754600F02CF829
:10020000AE4605006946534620F00700854618B003
:1002100020B5FFF7DDFFBDE820404FF000064FF0AE
:1002200000074FF000084FF0000BAC46ACE8C009E7
:10023000ACE8C009ACE8C009ACE8C00921F007018E
:100240008D46704710B50446AFF300802046BDE8E8
:100250001040FFF7A8BF00000048704710000020C2
:1002600001491820ABBEFEE72600020070470000DF
:10027000FEE7000070470000EFF3108072B600BF89
:10028000FEE70000B0B5044600F018F9054640F25C
:100290000000C2F200000078611C18BF044400BFD7
:1002A00000F00CF9401BA042FAD3B0BD2DE9F04F8D
:1002B00082B00E68002E00F0FD8041F20042C4F2D0
:1002C0000102042340F2004E904208BF03234FF680
:1002D000FF7CC4F2010E009300240123C1F2100C34
:1002E0004FF0000A4FF000094BE000BF41F200025E
:1002F000C4F20102009F904208BF022704F00C03E1
:100300000F229A402BEA020207FA03F34FEA9A05FA
:100310001A4346F825204E6840F20C45F202DEF8FA
:10032000082054BF22EA080242EA0802C4F201058A
:10033000CEF808202A68B30254BF22EA080242EA33
:1003400008022A60B303DEF8042054BF22EA080240
:1003500042EA0802F303CEF80420DEF800204FF052
:10036000010354BF22EA080242EA0802CEF8002044
:100370000E680AF1010A36FA0AF204F1040400F0E8
:10038000998003FA0AFB16EA0B08F1D04E6866451D
:1003900012DC122E56D8DFE806F0350B4D495555C4
:1003A000555555555555555555555545510000BF51
:1003B000D1F80C9046E000BF4FF6FF72C1F2210267
:1003C00096420FDC0022C1F2110296421AD000229E
:1003D000C1F21202964215D00022C1F221029642C9
:1003E00010D02FE00022C1F2220296420AD0002251
:1003F000C1F23102964205D00022C1F23202964289
:1004000020D100BF8A684AB1012A14BFC0F814B0D5
:10041000C0F810B04FF0080914E000BF4FF0040915
:1004200010E000BFCA6802F104090BE04FF00009B8
:1004300008E000BFCA6802F1080903E0CA6802F1D7
:100440000C0900BF02462646B8F5807F24BF04325F
:10045000203E17680F25B54027EA050509FA06F67C
:1004600035431560CA79D2067FF582AF41F2180391
:10047000C4F202031A68AEF57E7642F001021A60F9
:100480001A6802F001020192019A2AF0030256F85A
:1004900002B040F60002C4F20102904208D040F6D9
:1004A0000042C4F2010290427FF420AF012725E709
:1004B000002723E702B0BDE8F08F000040F2B8004B
:1004C000C2F200000068704740F2000040F2B8013C
:1004D000C2F20000C2F2000100780A68104408600D
:1004E0007047000080B542F20000C4F202000168CB
:1004F00041F010010160032000F07AF80F2000F0B5
:1005000005F800F027F8002080BD000070B540F22B
:100510000006C2F2000640F208013278C2F2000181
:100520004FF47A730968B3FBF2F20446B1FBF2F1BF
:10053000084600F073FB0F2C4FF0010508D838B9BE
:100540004FF0FF3021460022002500F025F87460AE
:10055000284670BD82B041F21800C4F20200016862
:10056000022241F001010160016801F001010191E5
:100570000199416841F080514160406800F080502D
:10058000009000980420C4F20100016862F31A612F
:10059000016002B07047000010B54EF60C5CCEF260
:1005A000000CDCF80030C3F3022E8EF00704042C9C
:1005B00028BF0424BEF103034FF0FF3E0EFA04F4FB
:1005C00038BF0023A14399400EFA03F39A43114325
:1005D00000F00F0200F160430901043A03F564439F
:1005E0006244002848BF02F10C03197010BD0000DE
:1005F0004EF60C51CEF200010A684FF6FF031A4086
:1006000060F30A2242F0806040F0FD70086070479D
:10061000002804BF012070472DE9F04381B042F269
:100620000008C4F202080446D8F800000D4600F0A5
:10063000070081420CD9D8F8000020F007002843B9
:10064000C8F80000D8F8000000F00700A8426CD1FC
:10065000206841F204098107C4F2020917D5410755
:1006600005D5D9F8001041F4E061C9F80010010780
:1006700005D5D9F8001041F46051C9F80010D9F837
:100680000010A26821F0F0011143C9F80010C00762
:1006900042D1D8F8000000F0070085420CD2D8F80B
:1006A000000020F007002843C8F80000D8F8000038
:1006B00000F00700A84238D12068410707D5D9F8D3
:1006C0000010E26821F4E0611143C9F8001000074E
:1006D00008D5D9F80000216920F4605040EAC10033
:1006E000C9F80000D9F8002002F00C00082841F2F7
:1006F0000020C0F27A004DD141F28A03C2F3834157
:10070000C0F60003595CD20338D440F60010C0F2A2
:100710003D0048433EE000BF606859F8041C0228D1
:1007200008D0012826D1890306D4012001B0BDE8F4
:10073000F08300BF8901F8D5D9F8001021F003013A
:100740000843C9F80000FFF7B9FE064641F28837B2
:10075000D9F80000616800F00C00B0EB810F98D070
:10076000FFF7ACFE801BB842F2D9032001B0BDE810
:10077000F08300BF8907D8D5DEE700BFD9F8002095
:1007800041F28803C2F34042C0F600039A5C48433A
:10079000B0FBF2F0D9F8001041F27002C1F303117E
:1007A000C0F60002515C40F2080220FA01F140F26A
:1007B0000400C2F200000068C2F200021160FFF7FC
:1007C000A5FE002001B0BDE8F083000040F2080063
:1007D00041F20401C2F20000C4F20201006809689B
:1007E00041F28002C1F30221C0F60002515CC84010
:1007F0007047000040F2080041F20401C2F200001C
:10080000C4F202010068096841F28002C1F3C2210A
:10081000C0F60002515CC84070470000002804BFC9
:10082000012070472DE9F04182B00446007841F282
:100830000006C007C4F202060CD0706800F00C007D
:10084000042840F081803068800303D56068002868
:1008500000F04681207880071BD5706810F00C0FDF
:1008600009D0706800F00C00082840F0878070689C
:10087000C00300F183803068800703D52069012818
:1008800040F02E813068616920F0F80040EAC10034
:1008900030602078000713D4207840072CD4E56915
:1008A000002D00F01881706800F00C00082840F05E
:1008B000A780012D40F00481012002B0BDE8F08145
:1008C000A069002800F084800020C4F242200121A9
:1008D000C0F88014FFF7F2FD054600BF706A80077C
:1008E00000F1B280FFF7EAFD401B0228F6D9032091
:1008F00002B0BDE8F08100BFF0695FEAC00808D42B
:10090000F06940F08050F061F06900F08050009094
:10091000009847F20007C4F200073868C00549D4C0
:10092000386840F480703860FFF7C8FD054600BFA6
:100930003868C0053ED4FFF7C1FD401B6428F7D9D5
:10094000032002B0BDE8F081706800F00C000828B8
:1009500003D17068C0033FF576AF61683068002945
:1009600000F00C81B1F5A02F00F00081B1F5803FBF
:1009700040F01A8140F480301CE100BF206900285B
:1009800040F20000C4F2422000F0888001210160A2
:10099000FFF794FD054600BF306880073FF572AF52
:1009A000FFF78CFD401B0228F6D9032002B0BDE8FA
:1009B000F08100BFE168306A002900F09D800529C0
:1009C00000F09280012940F0AF8040F00100B1E0DA
:1009D0000020C4F242200021C0F88014FFF76EFD11
:1009E000054600BF706A80077FF556AFFFF766FDCA
:1009F000401B0228F6D9032002B0BDE8F08100BFF9
:100A00000027C4F2422700203866FFF757FD022D69
:100A100005460DD13068800140F1DE80FFF74EFDC4
:100A2000401B02284FF00300F4D902B0BDE8F0816A
:100A3000306880014FD5FFF741FD401B02284FF081
:100A40000300F5D9F1E700BF40F20800C2F2000050
:100A5000006844F6D351C1F26201A0FB0101480ACB
:100A6000019000BF00BF0198411E002801913FF492
:100A700013AF00BF0198411E002801913FF40CAF55
:100A800000BF0198411E002801913FF405AF00BF4F
:100A90000198411E00280191E4D1FDE6002101608A
:100AA000FFF70CFD054600BF306880077FF5F1AE0B
:100AB000FFF704FD401B02284FF00300F4D9B4E710
:100AC0007068216A00F480328A4209D1616A00F4B8
:100AD0007010884204D1002002B0BDE8F08100BF50
:100AE000012002B0BDE8F08140F004003062306ABD
:100AF00040F001001EE000BF20F001003062306ACB
:100B000020F004003062FFF7D9FC054641F2883737
:100B1000306A800720D5FFF7D1FC401BB8424FF068
:100B20000300F5D981E700BF20F001003062306A90
:100B300020F004003062FFF7C1FC054641F288371F
:100B4000306A800708D4FFF7B9FC401BB842F7D9D8
:100B5000032002B0BDE8F081B8F1000F3FF59FAE71
:100B6000F06920F08050F06199E600BF40F48020E9
:100B70003060306840F480301CE000BF20F48030EA
:100B80003060306820F480203060FFF797FC054625
:100B9000306880037FF55EAEFFF790FC401B642851
:100BA0004FF00300F4D940E720F480303060306823
:100BB00020F480203060FFF781FC05463068800318
:100BC0003FF548AEFFF77AFC401B6428F6D90320B6
:100BD00002B0BDE8F08100BF206AB0F5803F05D1CA
:100BE0007168A26821F40031114371607168626A12
:100BF00021F4741111430843706001203866FFF737
:100C00005DFC0446306880013FF565AFFFF756FC98
:100C1000001B02284FF00300F4D906E7411E002014
:100C2000B0EB116F1CBF012070474EF21002CEF2E4
:100C3000000251604EF62351CEF20001F0230B70FA
:100C40000721906011607047002804BF01207047A1
:100C500010B5044690F8410028B9002084F84000FF
:100C6000204600F063F8242084F841002068D4E98D
:100C70000212C36823F40053C360036923F4405392
:100C80001A430261D4E904231143C268194341F2B3
:100C90000C639A431143C1604169A26921F4407118
:100CA000114343F60002C4F201029042416103D0B5
:100CB000FFF78CFD02E000BFFFF79CFDD4E90023A5
:100CC000192148439900B0FBF1F048F21F5CC5F2CE
:100CD000EB1CA0FB0C314FF69C734909C0F6FF7367
:100CE00001FB0300322303EB0010A0FB0C03F020F8
:100CF00000EA531000EB0110C3F343110844906065
:100D00001069202120F490401061506920F02A00E1
:100D10005061D06840F40050D0600020606484F8D6
:100D2000411084F84210606310BD000070B586B0B9
:100D300040F60004C4F20104006804F540510026A6
:100D400088420596CDE90366029601D006B070BDD3
:100D500041F21800C4F20200016802AD41F4804182
:100D60000160016801F4804101910199016841F03D
:100D7000040101600068294600F004000190019818
:100D80004FF400700290022003900320059020464B
:100D9000FFF78CFA4FF48060CDE902062046294621
:100DA0000496FFF783FA06B070BD00002DE9F0430A
:100DB00081B0044690F84100202809D100294FF065
:100DC000010018BF002A07D101B0BDE8F08300BFC1
:100DD000022001B0BDE8F0830020606421201D46A0
:100DE0000E4684F841001746FFF768FBA784E784A6
:100DF000A1688146B1F5805F02D1206900285DD0ED
:100E000037460020E28C2168002A5DD06A1C24D07D
:100E1000002D4AD0804600BF0868000608D4FFF7BE
:100E20004DFBA0EB0900A8427AD82168C868F3E717
:100E300017B117F8010B04E038F8020B00276FF325
:100E40005F204860E08C0138E084E08C0028E3D12A
:100E50003AE000BF0A68120609D40A68120606D4EE
:100E60000A6812065CBF0A685FEA0262F2D51FB127
:100E700017F8012B05E000BF30F8022B00276FF3B5
:100E80005F224A60E28C013AE284E28C002AE4D1DB
:100E90001AE000BF30F8022B00276FF35F224A6090
:100EA000E28C013AE284E28C72B10A68120635D50E
:100EB000002FEFD017F8012BF1E700BF00273046D5
:100EC000E28C2168002AA1D1086840061ED42DB307
:100ED000681C14D1086840062AD40868400627D444
:100EE0000868400624D4086840064FF00000F1D599
:100EF0000DE000BF2068C1680068400618D4FFF705
:100F0000DDFAA0EB0900A842F4D909E00020202175
:100F100084F8411001B0BDE8F08300BFFFF7CEFABE
:100F20000320202184F8411001B0BDE8F08300BF08
:100F30000020202184F8411001B0BDE8F0830000BA
:100F4000FEE7000083B041F21800C4F2020001681D
:100F500041F010010160016801F010010291029955
:100F6000016841F020010160016801F02001019158
:100F70000199016841F004010160006800F004007B
:100F80000090009803B0704780B540F2700043F6BF
:100F90000001C2F20000C4F2010100234FF00C0C6A
:100FA0004FF4E13280E80E00C0E90333C0E905C325
:100FB000C361FFF749FE002808BF80BDBDE880403F
:100FC000FFF75AB9FEE70000FEE700007047000097
:100FD00070470000FFF778BA70470000FEE7000096
:100FE00090B0FFF77FFA00240120CDE90B44CDE952
:100FF000094406900A904FF4E0104FF48031022526
:101000000F9006A8CDE90714CDE90D51FFF706FCB6
:1010100020B1EFF3108072B6FEE700BF0F20CDE9DC
:1010200001054FF48060CDE9040401A80221039476
:10103000FFF7EEFA20B1EFF3108072B6FEE700BFC3
:10104000FFF780FFFFF7A0FF40F270044620C2F2D6
:10105000000406AD8DF818002046294601224FF005
:10106000FF33FFF7A3FE4FF47A70FFF70BF9F3E7B6
:101070000000000000000000010203040607080948
:101080000000000001020304010202030405060738
:1010900008090A0B0C0D0E0F10100000C0100008FC
:1010A000000000201000000050010008D0100008CF
:1010B00010000020B00600007001000800000000D1
:1010C000010000001000000000127A000000000083
:04000005080000ED02
:00000001FF
